S0210000456C656374726F6E69635F766F74696E675F6D616368696E652E73726563D1
S11300000C942A000C9447000C9447000C9447006D
S11300100C9447000C9447000C9447000C94470040
S11300200C9447000C9447000C9447000C94470030
S11300300C9447000C9447000C9447000C94470020
S11300400C9447000C9447000C9447000C94470010
S11300500C94470011241FBECFE5D8E0DEBFCDBF0E
S113006010E0A0E6B0E0E8E1FAE002C005900D92ED
S1130070A037B107D9F710E0A0E7B0E001C01D92A6
S1130080A437B107E1F70E94FC020C940A050C9412
S1130090000040E00E94500008950E945601089517
S11300A0823451F1833420F4813409F07BC007C0D9
S11300B0833409F43EC0843409F074C057C041301D
S11300C069F42AB381E090E0AC0102C0440F551FEB
S11300D06A95E2F7BA01622B6ABB08952AB381E0FC
S11300E090E0AC0102C0440F551F6A95E2F7BA01D3
S11300F0609562236ABB0895413069F427B381E0B7
S113010090E0AC0102C0440F551F6A95E2F7BA01B2
S1130110622B67BB089527B381E090E0AC0102C075
S1130120440F551F6A95E2F7BA016095622367BBD5
S11301300895413069F424B381E090E0AC0102C039
S1130140440F551F6A95E2F7BA01622B64BB089508
S113015024B381E090E0AC0102C0440F551F6A95BE
S1130160E2F7BA016095622364BB0895413069F4F3
S113017021B381E090E0AC0102C0440F551F6A95A1
S1130180E2F7BA01622B61BB089521B381E090E0EC
S1130190AC0102C0440F551F6A95E2F7BA0160959D
S11301A0622361BB0895823451F1833420F4813495
S11301B009F07BC007C0833409F43EC0843409F0DD
S11301C074C057C0413069F42BB381E090E0AC01B6
S11301D002C0440F551F6A95E2F7BA01622B6BBB4C
S11301E008952BB381E090E0AC0102C0440F551F89
S11301F06A95E2F7BA01609562236BBB08954130BA
S113020069F428B381E090E0AC0102C0440F551FAB
S11302106A95E2F7BA01622B68BB089528B381E0BE
S113022090E0AC0102C0440F551F6A95E2F7BA0191
S11302306095622368BB0895413069F425B381E079
S113024090E0AC0102C0440F551F6A95E2F7BA0171
S1130250622B65BB089525B381E090E0AC0102C038
S1130260440F551F6A95E2F7BA016095622365BB96
S11302700895413069F422B381E090E0AC0102C0FA
S1130280440F551F6A95E2F7BA01622B62BB0895C9
S113029022B381E090E0AC0102C0440F551F6A957F
S11302A0E2F7BA016095622362BB08958234F1F0EB
S11302B0833420F4813409F04FC006C0833441F103
S11302C0843409F049C036C029B381E090E0062E99
S11302D002C0880F991F0A94E2F730E08223932327
S11302E002C0959587956A95E2F7089526B381E053
S11302F090E0062E02C0880F991F0A94E2F730E0BE
S11303008223932302C0959587956A95E2F7089511
S113031023B381E090E0062E02C0880F991F0A944F
S1130320E2F730E08223932302C0959587956A957E
S1130330E2F7089520B381E090E0062E02C0880F12
S1130340991F0A94E2F730E08223932302C0959523
S113035087956A95E2F7089580E008958234B9F0AC
S1130360833418F48134C9F505C08334E9F0843446
S1130370A1F527C02BB381E090E0AC0102C0440F8B
S1130380551F6A95E2F7BA0162276BBB089528B33B
S113039081E090E0AC0102C0440F551F6A95E2F77A
S11303A0BA01622768BB089525B381E090E0AC01EF
S11303B002C0440F551F6A95E2F7BA01622765BB74
S11303C0089522B381E090E0AC0102C0440F551FB0
S11303D06A95E2F7BA01622762BB0895823461F03C
S11303E0833418F4813469F405C0833439F08434D7
S11303F041F406C06ABB089567BB089564BB0895C1
S113040061BB0895823461F0833418F4813469F453
S113041005C0833439F0843441F406C06BBB0895BD
S113042068BB089565BB089562BB0895823461F08A
S1130430833418F4813471F405C0833439F084347E
S113044049F406C089B3089586B3089583B3089523
S113045080B3089580E00895823451F1833420F408
S1130460813409F07BC007C0833409F43EC084346E
S113047009F074C057C0413069F42BB381E090E0B7
S1130480AC0102C0440F551F6A95E2F7BA01622B12
S11304906BBB08952BB381E090E0AC0102C0440F24
S11304A0551F6A95E2F7BA01609562236BBB089504
S11304B0413069F428B381E090E0AC0102C0440FFC
S11304C0551F6A95E2F7BA01622B68BB089528B3F9
S11304D081E090E0AC0102C0440F551F6A95E2F739
S11304E0BA016095622368BB0895413069F425B36D
S11304F081E090E0AC0102C0440F551F6A95E2F719
S1130500BA01622B65BB089525B381E090E0AC018C
S113051002C0440F551F6A95E2F7BA016095622341
S113052065BB0895413069F422B381E090E0AC01E9
S113053002C0440F551F6A95E2F7BA01622B62BBF1
S1130540089522B381E090E0AC0102C0440F551F2E
S11305506A95E2F7BA016095622362BB08956F70F1
S1130560823481F0833418F48134F1F405C0833487
S113057079F08434C9F412C08BB3807F8BBB8BB306
S1130580862B8BBB88B3807F88BB88B3862B88BBC4
S113059085B3807F85BB85B3862B85BB82B3807F83
S11305A082BB82B3682B62BB08956295607F8234FC
S11305B081F0833418F48134F1F405C0833479F084
S11305C08434C9F412C08BB38F708BBB8BB3862B6E
S11305D08BBB88B38F7088BB88B3862B88BB85B3ED
S11305E08F7085BB85B3862B85BB82B38F7082BB2E
S11305F082B3682B62BB08950E94480484E460E0DF
S11306000E94490084E461E00E94490084E462E0BD
S11306100E94490084E463E00E94490084E464E0A9
S11306200E94490080E690E00E94C40481E06CE0EE
S11306300E94DD0484E690E00E94C40482E061E04C
S11306400E94DD0488E690E00E94C40482E06CE02D
S11306500E94DD048CE690E00E94C40400E610E0F1
S11306600F2EF4E6EF2EF0E0FF2EF02D0F2EF8E61D
S1130670CF2EF0E0DF2EF02D0F2EFCE6AF2EF0E0B3
S1130680BF2EF02DCAE084E460E00E944D0081306A
S113069021F5809173008F5F8093730081E063E0A4
S11306A00E94DD04809173008A3020F4805D0E94F2
S11306B0B204BBC0843608F0B8C06C2F0E94FE049C
S11306C0805D0E94B204809173006C2F0E94FE042E
S11306D0892F805D0E94B204A8C084E461E00E9476
S11306E04D00813031F5809172008F5F80937200EC
S11306F081E06EE00E94DD04809172008A3020F473
S1130700805D0E94B20491C090917300943608F009
S11307108CC06C2F0E94FE04805D0E94B204809104
S113072072006C2F0E94FE04892F805D0E94B20427
S11307307CC084E462E00E944D00813021F5809108
S113074071008F5F8093710082E063E00E94DD049A
S1130750809171008A3020F4805D0E94B20465C0EB
S1130760843608F062C06C2F0E94FE04805D0E94F3
S1130770B204809171006C2F0E94FE04892F805D69
S11307800E94B20452C084E463E00E944D008130B0
S113079019F5809170008F5F8093700082E06EE0A5
S11307A00E94DD04809170008A3020F4805D0E94F4
S11307B0B2043BC08436C8F56C2F0E94FE04805DF1
S11307C00E94B204809170006C2F0E94FE04892F55
S11307D0805D0E94B20429C084E464E00E944D005C
S11307E0813019F51092700010927100109272000D
S11307F01092730061E00E94DD04C8010E94C404E9
S113080081E06CE00E94DD04C7010E94C40482E020
S113081061E00E94DD04C6010E94C40482E06CE031
S11308200E94DD04C5010E94C4048FEF92E5A7E095
S113083081509040A040E1F700C0000024CF82E442
S113084060E041E00E94D3008FE99FE00197F1F757
S113085000C0000082E460E040E00E94D3008FE921
S11308609FE00197F1F700C000000895682F81E42C
S11308700E94020282E461E040E00E94D3000E94F0
S11308801F048FEC97E00197F1F700C00000089572
S11308908FEF91EEA4E081509040A040E1F700C0BA
S11308A0000081E460E041E00E94500081E461E0E6
S11308B041E00E94500081E462E041E00E94500067
S11308C081E463E041E00E94500081E464E041E09F
S11308D00E94500081E465E041E00E94500081E400
S11308E066E041E00E94500081E467E041E00E943C
S11308F0500082E460E041E00E94500082E462E043
S113090041E00E94500082E461E041E00E94500016
S113091082E462E040E00E94D30088E30E9436044F
S1130920AFECB7E01197F1F700C000008EE00E9431
S113093036048FEC97E00197F1F700C0000081E0E6
S11309400E943604AFE1BEE41197F1F700C0000045
S113095086E00E9436048FEC97E00197F1F700C01F
S113096000000895682F81E40E94020282E461E09D
S113097041E00E94D3000E941F048FEC97E001978E
S1130980F1F700C000000895CF93DF93EC01888154
S1130990882331F021960E94B20489918823D9F7E3
S11309A0DF91CF91089581E00E9436048FE19EE4A7
S11309B00197F1F700C000000895282F215022303C
S11309C070F4662371F0613170F4813019F4962F5C
S11309D091580AC0823041F4962F915405C090E892
S11309E003C090E801C090E8892F0E9436048FEC80
S11309F097E00197F1F700C000000895991B79E092
S1130A0004C0991F961708F0961B881F7A95C9F79A
S10B0A1080950895F894FFCFCE
S1130A18413D3000423D3000433D3000443D30000C
S9030000FC
